{
  "contractName": "Project",
  "abi": [
    {
      "constant": true,
      "inputs": [
        {
          "internalType": "uint256",
          "name": "",
          "type": "uint256"
        }
      ],
      "name": "_idcheck",
      "outputs": [
        {
          "internalType": "uint256",
          "name": "",
          "type": "uint256"
        }
      ],
      "payable": false,
      "stateMutability": "view",
      "type": "function"
    },
    {
      "constant": true,
      "inputs": [
        {
          "internalType": "uint256",
          "name": "",
          "type": "uint256"
        }
      ],
      "name": "_idtrans",
      "outputs": [
        {
          "internalType": "uint256",
          "name": "",
          "type": "uint256"
        }
      ],
      "payable": false,
      "stateMutability": "view",
      "type": "function"
    },
    {
      "constant": true,
      "inputs": [
        {
          "internalType": "uint256",
          "name": "",
          "type": "uint256"
        }
      ],
      "name": "data_product",
      "outputs": [
        {
          "internalType": "uint256",
          "name": "product_id",
          "type": "uint256"
        },
        {
          "internalType": "string",
          "name": "product_name",
          "type": "string"
        },
        {
          "internalType": "string",
          "name": "product_manufacture_date",
          "type": "string"
        },
        {
          "internalType": "string",
          "name": "product_expiry_date",
          "type": "string"
        },
        {
          "internalType": "string",
          "name": "latitude",
          "type": "string"
        },
        {
          "internalType": "string",
          "name": "longitude",
          "type": "string"
        },
        {
          "internalType": "string",
          "name": "name",
          "type": "string"
        }
      ],
      "payable": false,
      "stateMutability": "view",
      "type": "function"
    },
    {
      "constant": true,
      "inputs": [
        {
          "internalType": "uint256",
          "name": "",
          "type": "uint256"
        }
      ],
      "name": "mul_tr",
      "outputs": [
        {
          "internalType": "uint256",
          "name": "id",
          "type": "uint256"
        }
      ],
      "payable": false,
      "stateMutability": "view",
      "type": "function"
    },
    {
      "constant": true,
      "inputs": [
        {
          "internalType": "uint256",
          "name": "",
          "type": "uint256"
        }
      ],
      "name": "trans",
      "outputs": [
        {
          "internalType": "uint256",
          "name": "id",
          "type": "uint256"
        },
        {
          "internalType": "string",
          "name": "name",
          "type": "string"
        },
        {
          "internalType": "string",
          "name": "lat",
          "type": "string"
        },
        {
          "internalType": "string",
          "name": "lon",
          "type": "string"
        },
        {
          "internalType": "string",
          "name": "transport_address",
          "type": "string"
        },
        {
          "internalType": "string",
          "name": "feedback",
          "type": "string"
        },
        {
          "internalType": "string",
          "name": "complaint",
          "type": "string"
        }
      ],
      "payable": false,
      "stateMutability": "view",
      "type": "function"
    },
    {
      "constant": false,
      "inputs": [
        {
          "internalType": "uint256",
          "name": "_id",
          "type": "uint256"
        },
        {
          "internalType": "string",
          "name": "_product_name",
          "type": "string"
        },
        {
          "internalType": "string",
          "name": "_product_manu",
          "type": "string"
        },
        {
          "internalType": "string",
          "name": "_product_exp",
          "type": "string"
        },
        {
          "internalType": "string",
          "name": "_supp_lat",
          "type": "string"
        },
        {
          "internalType": "string",
          "name": "_supp_lon",
          "type": "string"
        },
        {
          "internalType": "string",
          "name": "_supp_name",
          "type": "string"
        }
      ],
      "name": "setValue",
      "outputs": [],
      "payable": false,
      "stateMutability": "nonpayable",
      "type": "function"
    },
    {
      "constant": false,
      "inputs": [
        {
          "internalType": "uint256",
          "name": "_id",
          "type": "uint256"
        },
        {
          "internalType": "uint256",
          "name": "_trid",
          "type": "uint256"
        },
        {
          "internalType": "string",
          "name": "name",
          "type": "string"
        },
        {
          "internalType": "string",
          "name": "lat",
          "type": "string"
        },
        {
          "internalType": "string",
          "name": "lon",
          "type": "string"
        },
        {
          "internalType": "string",
          "name": "transport_address",
          "type": "string"
        },
        {
          "internalType": "string",
          "name": "feedback",
          "type": "string"
        },
        {
          "internalType": "string",
          "name": "complaint",
          "type": "string"
        }
      ],
      "name": "updateMulTranVal",
      "outputs": [],
      "payable": false,
      "stateMutability": "nonpayable",
      "type": "function"
    },
    {
      "constant": true,
      "inputs": [
        {
          "internalType": "uint256",
          "name": "_id",
          "type": "uint256"
        },
        {
          "internalType": "uint256",
          "name": "we",
          "type": "uint256"
        }
      ],
      "name": "getMultiname",
      "outputs": [
        {
          "internalType": "string",
          "name": "",
          "type": "string"
        }
      ],
      "payable": false,
      "stateMutability": "view",
      "type": "function"
    },
    {
      "constant": true,
      "inputs": [
        {
          "internalType": "uint256",
          "name": "_id",
          "type": "uint256"
        },
        {
          "internalType": "uint256",
          "name": "we",
          "type": "uint256"
        }
      ],
      "name": "getMultilat",
      "outputs": [
        {
          "internalType": "string",
          "name": "",
          "type": "string"
        }
      ],
      "payable": false,
      "stateMutability": "view",
      "type": "function"
    },
    {
      "constant": true,
      "inputs": [
        {
          "internalType": "uint256",
          "name": "_id",
          "type": "uint256"
        },
        {
          "internalType": "uint256",
          "name": "we",
          "type": "uint256"
        }
      ],
      "name": "getMultilon",
      "outputs": [
        {
          "internalType": "string",
          "name": "",
          "type": "string"
        }
      ],
      "payable": false,
      "stateMutability": "view",
      "type": "function"
    },
    {
      "constant": true,
      "inputs": [
        {
          "internalType": "uint256",
          "name": "_id",
          "type": "uint256"
        },
        {
          "internalType": "uint256",
          "name": "we",
          "type": "uint256"
        }
      ],
      "name": "getMultitraddress",
      "outputs": [
        {
          "internalType": "string",
          "name": "",
          "type": "string"
        }
      ],
      "payable": false,
      "stateMutability": "view",
      "type": "function"
    },
    {
      "constant": true,
      "inputs": [
        {
          "internalType": "uint256",
          "name": "_id",
          "type": "uint256"
        },
        {
          "internalType": "uint256",
          "name": "we",
          "type": "uint256"
        }
      ],
      "name": "getMultifeed",
      "outputs": [
        {
          "internalType": "string",
          "name": "",
          "type": "string"
        }
      ],
      "payable": false,
      "stateMutability": "view",
      "type": "function"
    },
    {
      "constant": true,
      "inputs": [
        {
          "internalType": "uint256",
          "name": "_id",
          "type": "uint256"
        },
        {
          "internalType": "uint256",
          "name": "we",
          "type": "uint256"
        }
      ],
      "name": "getMulticomp",
      "outputs": [
        {
          "internalType": "string",
          "name": "",
          "type": "string"
        }
      ],
      "payable": false,
      "stateMutability": "view",
      "type": "function"
    },
    {
      "constant": true,
      "inputs": [
        {
          "internalType": "uint256",
          "name": "_id",
          "type": "uint256"
        }
      ],
      "name": "getId",
      "outputs": [
        {
          "internalType": "uint256",
          "name": "",
          "type": "uint256"
        }
      ],
      "payable": false,
      "stateMutability": "view",
      "type": "function"
    },
    {
      "constant": true,
      "inputs": [
        {
          "internalType": "uint256",
          "name": "_id",
          "type": "uint256"
        }
      ],
      "name": "getPname",
      "outputs": [
        {
          "internalType": "string",
          "name": "",
          "type": "string"
        }
      ],
      "payable": false,
      "stateMutability": "view",
      "type": "function"
    },
    {
      "constant": true,
      "inputs": [
        {
          "internalType": "uint256",
          "name": "_id",
          "type": "uint256"
        }
      ],
      "name": "getPman",
      "outputs": [
        {
          "internalType": "string",
          "name": "",
          "type": "string"
        }
      ],
      "payable": false,
      "stateMutability": "view",
      "type": "function"
    },
    {
      "constant": true,
      "inputs": [
        {
          "internalType": "uint256",
          "name": "_id",
          "type": "uint256"
        }
      ],
      "name": "getPexp",
      "outputs": [
        {
          "internalType": "string",
          "name": "",
          "type": "string"
        }
      ],
      "payable": false,
      "stateMutability": "view",
      "type": "function"
    },
    {
      "constant": true,
      "inputs": [
        {
          "internalType": "uint256",
          "name": "_id",
          "type": "uint256"
        }
      ],
      "name": "getSlat",
      "outputs": [
        {
          "internalType": "string",
          "name": "",
          "type": "string"
        }
      ],
      "payable": false,
      "stateMutability": "view",
      "type": "function"
    },
    {
      "constant": true,
      "inputs": [
        {
          "internalType": "uint256",
          "name": "_id",
          "type": "uint256"
        }
      ],
      "name": "getSlon",
      "outputs": [
        {
          "internalType": "string",
          "name": "",
          "type": "string"
        }
      ],
      "payable": false,
      "stateMutability": "view",
      "type": "function"
    },
    {
      "constant": true,
      "inputs": [
        {
          "internalType": "uint256",
          "name": "_id",
          "type": "uint256"
        }
      ],
      "name": "getSname",
      "outputs": [
        {
          "internalType": "string",
          "name": "",
          "type": "string"
        }
      ],
      "payable": false,
      "stateMutability": "view",
      "type": "function"
    },
    {
      "constant": false,
      "inputs": [],
      "name": "getArr",
      "outputs": [
        {
          "internalType": "uint256",
          "name": "",
          "type": "uint256"
        }
      ],
      "payable": false,
      "stateMutability": "nonpayable",
      "type": "function"
    },
    {
      "constant": false,
      "inputs": [],
      "name": "getTran",
      "outputs": [
        {
          "internalType": "uint256",
          "name": "",
          "type": "uint256"
        }
      ],
      "payable": false,
      "stateMutability": "nonpayable",
      "type": "function"
    }
  ],
  "bytecode": "0x608060405234801561001057600080fd5b506146aa806100206000396000f3fe608060405234801561001057600080fd5b50600436106101425760003560e01c8063770680f8116100b8578063bff6c9b81161007c578063bff6c9b814611212578063ca24c588146115ca578063debed8731461160c578063f26d64d4146116bd578063fb8cbced146116db578063ff2215da146116f957610142565b8063770680f81461097c57806386f2dc7514610c46578063891d12f714610cf75780638cdde34014610da8578063bcf9513214610e4f57610142565b80632c959d041161010a5780632c959d04146103d45780633d6735cb1461047b578063545a153a1461052257806357cdb0d8146105645780635fe030dc1461060b57806366c99139146106b257610142565b8063038c33841461014757806305215f79146101f85780630bebf21b1461023a57806316fd156b146102eb5780632408223814610392575b600080fd5b61017d6004803603604081101561015d57600080fd5b8101908080359060200190929190803590602001909291905050506117aa565b6040518080602001828103825283818151815260200191508051906020019080838360005b838110156101bd5780820151818401526020810190506101a2565b50505050905090810190601f1680156101ea5780820380516001836020036101000a031916815260200191505b509250505060405180910390f35b6102246004803603602081101561020e57600080fd5b8101908080359060200190929190505050611877565b6040518082815260200191505060405180910390f35b6102706004803603604081101561025057600080fd5b810190808035906020019092919080359060200190929190505050611898565b6040518080602001828103825283818151815260200191508051906020019080838360005b838110156102b0578082015181840152602081019050610295565b50505050905090810190601f1680156102dd5780820380516001836020036101000a031916815260200191505b509250505060405180910390f35b6103176004803603602081101561030157600080fd5b8101908080359060200190929190505050611965565b6040518080602001828103825283818151815260200191508051906020019080838360005b8381101561035757808201518184015260208101905061033c565b50505050905090810190601f1680156103845780820380516001836020036101000a031916815260200191505b509250505060405180910390f35b6103be600480360360208110156103a857600080fd5b8101908080359060200190929190505050611d71565b6040518082815260200191505060405180910390f35b610400600480360360208110156103ea57600080fd5b8101908080359060200190929190505050611d8f565b6040518080602001828103825283818151815260200191508051906020019080838360005b83811015610440578082015181840152602081019050610425565b50505050905090810190601f16801561046d5780820380516001836020036101000a031916815260200191505b509250505060405180910390f35b6104a76004803603602081101561049157600080fd5b810190808035906020019092919050505061219b565b6040518080602001828103825283818151815260200191508051906020019080838360005b838110156104e75780820151818401526020810190506104cc565b50505050905090810190601f1680156105145780820380516001836020036101000a031916815260200191505b509250505060405180910390f35b61054e6004803603602081101561053857600080fd5b81019080803590602001909291905050506125a7565b6040518082815260200191505060405180910390f35b6105906004803603602081101561057a57600080fd5b81019080803590602001909291905050506129b3565b6040518080602001828103825283818151815260200191508051906020019080838360005b838110156105d05780820151818401526020810190506105b5565b50505050905090810190601f1680156105fd5780820380516001836020036101000a031916815260200191505b509250505060405180910390f35b6106376004803603602081101561062157600080fd5b8101908080359060200190929190505050612dbf565b6040518080602001828103825283818151815260200191508051906020019080838360005b8381101561067757808201518184015260208101905061065c565b50505050905090810190601f1680156106a45780820380516001836020036101000a031916815260200191505b509250505060405180910390f35b6106de600480360360208110156106c857600080fd5b81019080803590602001909291905050506131cb565b6040518088815260200180602001806020018060200180602001806020018060200187810387528d818151815260200191508051906020019080838360005b8381101561073857808201518184015260208101905061071d565b50505050905090810190601f1680156107655780820380516001836020036101000a031916815260200191505b5087810386528c818151815260200191508051906020019080838360005b8381101561079e578082015181840152602081019050610783565b50505050905090810190601f1680156107cb5780820380516001836020036101000a031916815260200191505b5087810385528b818151815260200191508051906020019080838360005b838110156108045780820151818401526020810190506107e9565b50505050905090810190601f1680156108315780820380516001836020036101000a031916815260200191505b5087810384528a818151815260200191508051906020019080838360005b8381101561086a57808201518184015260208101905061084f565b50505050905090810190601f1680156108975780820380516001836020036101000a031916815260200191505b50878103835289818151815260200191508051906020019080838360005b838110156108d05780820151818401526020810190506108b5565b50505050905090810190601f1680156108fd5780820380516001836020036101000a031916815260200191505b50878103825288818151815260200191508051906020019080838360005b8381101561093657808201518184015260208101905061091b565b50505050905090810190601f1680156109635780820380516001836020036101000a031916815260200191505b509d505050505050505050505050505060405180910390f35b6109a86004803603602081101561099257600080fd5b810190808035906020019092919050505061359d565b6040518088815260200180602001806020018060200180602001806020018060200187810387528d818151815260200191508051906020019080838360005b83811015610a025780820151818401526020810190506109e7565b50505050905090810190601f168015610a2f5780820380516001836020036101000a031916815260200191505b5087810386528c818151815260200191508051906020019080838360005b83811015610a68578082015181840152602081019050610a4d565b50505050905090810190601f168015610a955780820380516001836020036101000a031916815260200191505b5087810385528b818151815260200191508051906020019080838360005b83811015610ace578082015181840152602081019050610ab3565b50505050905090810190601f168015610afb5780820380516001836020036101000a031916815260200191505b5087810384528a818151815260200191508051906020019080838360005b83811015610b34578082015181840152602081019050610b19565b50505050905090810190601f168015610b615780820380516001836020036101000a031916815260200191505b50878103835289818151815260200191508051906020019080838360005b83811015610b9a578082015181840152602081019050610b7f565b50505050905090810190601f168015610bc75780820380516001836020036101000a031916815260200191505b50878103825288818151815260200191508051906020019080838360005b83811015610c00578082015181840152602081019050610be5565b50505050905090810190601f168015610c2d5780820380516001836020036101000a031916815260200191505b509d505050505050505050505050505060405180910390f35b610c7c60048036036040811015610c5c57600080fd5b81019080803590602001909291908035906020019092919050505061396f565b6040518080602001828103825283818151815260200191508051906020019080838360005b83811015610cbc578082015181840152602081019050610ca1565b50505050905090810190601f168015610ce95780820380516001836020036101000a031916815260200191505b509250505060405180910390f35b610d2d60048036036040811015610d0d57600080fd5b810190808035906020019092919080359060200190929190505050613a3c565b6040518080602001828103825283818151815260200191508051906020019080838360005b83811015610d6d578082015181840152602081019050610d52565b50505050905090810190601f168015610d9a5780820380516001836020036101000a031916815260200191505b509250505060405180910390f35b610dd460048036036020811015610dbe57600080fd5b8101908080359060200190929190505050613b09565b6040518080602001828103825283818151815260200191508051906020019080838360005b83811015610e14578082015181840152602081019050610df9565b50505050905090810190601f168015610e415780820380516001836020036101000a031916815260200191505b509250505060405180910390f35b6112106004803603610100811015610e6657600080fd5b81019080803590602001909291908035906020019092919080359060200190640100000000811115610e9757600080fd5b820183602082011115610ea957600080fd5b80359060200191846001830284011164010000000083111715610ecb57600080fd5b91908080601f016020809104026020016040519081016040528093929190818152602001838380828437600081840152601f19601f82011690508083019250505050505050919291929080359060200190640100000000811115610f2e57600080fd5b820183602082011115610f4057600080fd5b80359060200191846001830284011164010000000083111715610f6257600080fd5b91908080601f016020809104026020016040519081016040528093929190818152602001838380828437600081840152601f19601f82011690508083019250505050505050919291929080359060200190640100000000811115610fc557600080fd5b820183602082011115610fd757600080fd5b80359060200191846001830284011164010000000083111715610ff957600080fd5b91908080601f016020809104026020016040519081016040528093929190818152602001838380828437600081840152601f19601f8201169050808301925050505050505091929192908035906020019064010000000081111561105c57600080fd5b82018360208201111561106e57600080fd5b8035906020019184600183028401116401000000008311171561109057600080fd5b91908080601f016020809104026020016040519081016040528093929190818152602001838380828437600081840152601f19601f820116905080830192505050505050509192919290803590602001906401000000008111156110f357600080fd5b82018360208201111561110557600080fd5b8035906020019184600183028401116401000000008311171561112757600080fd5b91908080601f016020809104026020016040519081016040528093929190818152602001838380828437600081840152601f19601f8201169050808301925050505050505091929192908035906020019064010000000081111561118a57600080fd5b82018360208201111561119c57600080fd5b803590602001918460018302840111640100000000831117156111be57600080fd5b91908080601f016020809104026020016040519081016040528093929190818152602001838380828437600081840152601f19601f820116905080830192505050505050509192919290505050613f15565b005b6115c8600480360360e081101561122857600080fd5b81019080803590602001909291908035906020019064010000000081111561124f57600080fd5b82018360208201111561126157600080fd5b8035906020019184600183028401116401000000008311171561128357600080fd5b91908080601f016020809104026020016040519081016040528093929190818152602001838380828437600081840152601f19601f820116905080830192505050505050509192919290803590602001906401000000008111156112e657600080fd5b8201836020820111156112f857600080fd5b8035906020019184600183028401116401000000008311171561131a57600080fd5b91908080601f016020809104026020016040519081016040528093929190818152602001838380828437600081840152601f19601f8201169050808301925050505050505091929192908035906020019064010000000081111561137d57600080fd5b82018360208201111561138f57600080fd5b803590602001918460018302840111640100000000831117156113b157600080fd5b91908080601f016020809104026020016040519081016040528093929190818152602001838380828437600081840152601f19601f8201169050808301925050505050505091929192908035906020019064010000000081111561141457600080fd5b82018360208201111561142657600080fd5b8035906020019184600183028401116401000000008311171561144857600080fd5b91908080601f016020809104026020016040519081016040528093929190818152602001838380828437600081840152601f19601f820116905080830192505050505050509192919290803590602001906401000000008111156114ab57600080fd5b8201836020820111156114bd57600080fd5b803590602001918460018302840111640100000000831117156114df57600080fd5b91908080601f016020809104026020016040519081016040528093929190818152602001838380828437600081840152601f19601f8201169050808301925050505050505091929192908035906020019064010000000081111561154257600080fd5b82018360208201111561155457600080fd5b8035906020019184600183028401116401000000008311171561157657600080fd5b91908080601f016020809104026020016040519081016040528093929190818152602001838380828437600081840152601f19601f8201169050808301925050505050505091929192905050506140e3565b005b6115f6600480360360208110156115e057600080fd5b8101908080359060200190929190505050614218565b6040518082815260200191505060405180910390f35b6116426004803603604081101561162257600080fd5b810190808035906020019092919080359060200190929190505050614239565b6040518080602001828103825283818151815260200191508051906020019080838360005b83811015611682578082015181840152602081019050611667565b50505050905090810190601f1680156116af5780820380516001836020036101000a031916815260200191505b509250505060405180910390f35b6116c5614306565b6040518082815260200191505060405180910390f35b6116e36143a6565b6040518082815260200191505060405180910390f35b61172f6004803603604081101561170f57600080fd5b810190808035906020019092919080359060200190929190505050614446565b6040518080602001828103825283818151815260200191508051906020019080838360005b8381101561176f578082015181840152602081019050611754565b50505050905090810190601f16801561179c5780820380516001836020036101000a031916815260200191505b509250505060405180910390f35b60606002600084815260200190815260200160002060010160008381526020019081526020016000206003018054600181600116156101000203166002900480601f01602080910402602001604051908101604052809291908181526020018280546001816001161561010002031660029004801561186a5780601f1061183f5761010080835404028352916020019161186a565b820191906000526020600020905b81548152906001019060200180831161184d57829003601f168201915b5050505050905092915050565b6003818154811061188457fe5b906000526020600020016000915090505481565b60606002600084815260200190815260200160002060010160008381526020019081526020016000206001018054600181600116156101000203166002900480601f0160208091040260200160405190810160405280929190818152602001828054600181600116156101000203166002900480156119585780601f1061192d57610100808354040283529160200191611958565b820191906000526020600020905b81548152906001019060200180831161193b57829003601f168201915b5050505050905092915050565b606061196f614513565b6000808481526020019081526020016000206040518060e001604052908160008201548152602001600182018054600181600116156101000203166002900480601f016020809104026020016040519081016040528092919081815260200182805460018160011615610100020316600290048015611a2f5780601f10611a0457610100808354040283529160200191611a2f565b820191906000526020600020905b815481529060010190602001808311611a1257829003601f168201915b50505050508152602001600282018054600181600116156101000203166002900480601f016020809104026020016040519081016040528092919081815260200182805460018160011615610100020316600290048015611ad15780601f10611aa657610100808354040283529160200191611ad1565b820191906000526020600020905b815481529060010190602001808311611ab457829003601f168201915b50505050508152602001600382018054600181600116156101000203166002900480601f016020809104026020016040519081016040528092919081815260200182805460018160011615610100020316600290048015611b735780601f10611b4857610100808354040283529160200191611b73565b820191906000526020600020905b815481529060010190602001808311611b5657829003601f168201915b50505050508152602001600482018054600181600116156101000203166002900480601f016020809104026020016040519081016040528092919081815260200182805460018160011615610100020316600290048015611c155780601f10611bea57610100808354040283529160200191611c15565b820191906000526020600020905b815481529060010190602001808311611bf857829003601f168201915b50505050508152602001600582018054600181600116156101000203166002900480601f016020809104026020016040519081016040528092919081815260200182805460018160011615610100020316600290048015611cb75780601f10611c8c57610100808354040283529160200191611cb7565b820191906000526020600020905b815481529060010190602001808311611c9a57829003601f168201915b50505050508152602001600682018054600181600116156101000203166002900480601f016020809104026020016040519081016040528092919081815260200182805460018160011615610100020316600290048015611d595780601f10611d2e57610100808354040283529160200191611d59565b820191906000526020600020905b815481529060010190602001808311611d3c57829003601f168201915b50505050508152505090508060800151915050919050565b60026020528060005260406000206000915090508060000154905081565b6060611d99614513565b6000808481526020019081526020016000206040518060e001604052908160008201548152602001600182018054600181600116156101000203166002900480601f016020809104026020016040519081016040528092919081815260200182805460018160011615610100020316600290048015611e595780601f10611e2e57610100808354040283529160200191611e59565b820191906000526020600020905b815481529060010190602001808311611e3c57829003601f168201915b50505050508152602001600282018054600181600116156101000203166002900480601f016020809104026020016040519081016040528092919081815260200182805460018160011615610100020316600290048015611efb5780601f10611ed057610100808354040283529160200191611efb565b820191906000526020600020905b815481529060010190602001808311611ede57829003601f168201915b50505050508152602001600382018054600181600116156101000203166002900480601f016020809104026020016040519081016040528092919081815260200182805460018160011615610100020316600290048015611f9d5780601f10611f7257610100808354040283529160200191611f9d565b820191906000526020600020905b815481529060010190602001808311611f8057829003601f168201915b50505050508152602001600482018054600181600116156101000203166002900480601f01602080910402602001604051908101604052809291908181526020018280546001816001161561010002031660029004801561203f5780601f106120145761010080835404028352916020019161203f565b820191906000526020600020905b81548152906001019060200180831161202257829003601f168201915b50505050508152602001600582018054600181600116156101000203166002900480601f0160208091040260200160405190810160405280929190818152602001828054600181600116156101000203166002900480156120e15780601f106120b6576101008083540402835291602001916120e1565b820191906000526020600020905b8154815290600101906020018083116120c457829003601f168201915b50505050508152602001600682018054600181600116156101000203166002900480601f0160208091040260200160405190810160405280929190818152602001828054600181600116156101000203166002900480156121835780601f1061215857610100808354040283529160200191612183565b820191906000526020600020905b81548152906001019060200180831161216657829003601f168201915b50505050508152505090508060c00151915050919050565b60606121a5614513565b6000808481526020019081526020016000206040518060e001604052908160008201548152602001600182018054600181600116156101000203166002900480601f0160208091040260200160405190810160405280929190818152602001828054600181600116156101000203166002900480156122655780601f1061223a57610100808354040283529160200191612265565b820191906000526020600020905b81548152906001019060200180831161224857829003601f168201915b50505050508152602001600282018054600181600116156101000203166002900480601f0160208091040260200160405190810160405280929190818152602001828054600181600116156101000203166002900480156123075780601f106122dc57610100808354040283529160200191612307565b820191906000526020600020905b8154815290600101906020018083116122ea57829003601f168201915b50505050508152602001600382018054600181600116156101000203166002900480601f0160208091040260200160405190810160405280929190818152602001828054600181600116156101000203166002900480156123a95780601f1061237e576101008083540402835291602001916123a9565b820191906000526020600020905b81548152906001019060200180831161238c57829003601f168201915b50505050508152602001600482018054600181600116156101000203166002900480601f01602080910402602001604051908101604052809291908181526020018280546001816001161561010002031660029004801561244b5780601f106124205761010080835404028352916020019161244b565b820191906000526020600020905b81548152906001019060200180831161242e57829003601f168201915b50505050508152602001600582018054600181600116156101000203166002900480601f0160208091040260200160405190810160405280929190818152602001828054600181600116156101000203166002900480156124ed5780601f106124c2576101008083540402835291602001916124ed565b820191906000526020600020905b8154815290600101906020018083116124d057829003601f168201915b50505050508152602001600682018054600181600116156101000203166002900480601f01602080910402602001604051908101604052809291908181526020018280546001816001161561010002031660029004801561258f5780601f106125645761010080835404028352916020019161258f565b820191906000526020600020905b81548152906001019060200180831161257257829003601f168201915b50505050508152505090508060600151915050919050565b60006125b1614513565b6000808481526020019081526020016000206040518060e001604052908160008201548152602001600182018054600181600116156101000203166002900480601f0160208091040260200160405190810160405280929190818152602001828054600181600116156101000203166002900480156126715780601f1061264657610100808354040283529160200191612671565b820191906000526020600020905b81548152906001019060200180831161265457829003601f168201915b50505050508152602001600282018054600181600116156101000203166002900480601f0160208091040260200160405190810160405280929190818152602001828054600181600116156101000203166002900480156127135780601f106126e857610100808354040283529160200191612713565b820191906000526020600020905b8154815290600101906020018083116126f657829003601f168201915b50505050508152602001600382018054600181600116156101000203166002900480601f0160208091040260200160405190810160405280929190818152602001828054600181600116156101000203166002900480156127b55780601f1061278a576101008083540402835291602001916127b5565b820191906000526020600020905b81548152906001019060200180831161279857829003601f168201915b50505050508152602001600482018054600181600116156101000203166002900480601f0160208091040260200160405190810160405280929190818152602001828054600181600116156101000203166002900480156128575780601f1061282c57610100808354040283529160200191612857565b820191906000526020600020905b81548152906001019060200180831161283a57829003601f168201915b50505050508152602001600582018054600181600116156101000203166002900480601f0160208091040260200160405190810160405280929190818152602001828054600181600116156101000203166002900480156128f95780601f106128ce576101008083540402835291602001916128f9565b820191906000526020600020905b8154815290600101906020018083116128dc57829003601f168201915b50505050508152602001600682018054600181600116156101000203166002900480601f01602080910402602001604051908101604052809291908181526020018280546001816001161561010002031660029004801561299b5780601f106129705761010080835404028352916020019161299b565b820191906000526020600020905b81548152906001019060200180831161297e57829003601f168201915b50505050508152505090508060000151915050919050565b60606129bd614513565b6000808481526020019081526020016000206040518060e001604052908160008201548152602001600182018054600181600116156101000203166002900480601f016020809104026020016040519081016040528092919081815260200182805460018160011615610100020316600290048015612a7d5780601f10612a5257610100808354040283529160200191612a7d565b820191906000526020600020905b815481529060010190602001808311612a6057829003601f168201915b50505050508152602001600282018054600181600116156101000203166002900480601f016020809104026020016040519081016040528092919081815260200182805460018160011615610100020316600290048015612b1f5780601f10612af457610100808354040283529160200191612b1f565b820191906000526020600020905b815481529060010190602001808311612b0257829003601f168201915b50505050508152602001600382018054600181600116156101000203166002900480601f016020809104026020016040519081016040528092919081815260200182805460018160011615610100020316600290048015612bc15780601f10612b9657610100808354040283529160200191612bc1565b820191906000526020600020905b815481529060010190602001808311612ba457829003601f168201915b50505050508152602001600482018054600181600116156101000203166002900480601f016020809104026020016040519081016040528092919081815260200182805460018160011615610100020316600290048015612c635780601f10612c3857610100808354040283529160200191612c63565b820191906000526020600020905b815481529060010190602001808311612c4657829003601f168201915b50505050508152602001600582018054600181600116156101000203166002900480601f016020809104026020016040519081016040528092919081815260200182805460018160011615610100020316600290048015612d055780601f10612cda57610100808354040283529160200191612d05565b820191906000526020600020905b815481529060010190602001808311612ce857829003601f168201915b50505050508152602001600682018054600181600116156101000203166002900480601f016020809104026020016040519081016040528092919081815260200182805460018160011615610100020316600290048015612da75780601f10612d7c57610100808354040283529160200191612da7565b820191906000526020600020905b815481529060010190602001808311612d8a57829003601f168201915b50505050508152505090508060a00151915050919050565b6060612dc9614513565b6000808481526020019081526020016000206040518060e001604052908160008201548152602001600182018054600181600116156101000203166002900480601f016020809104026020016040519081016040528092919081815260200182805460018160011615610100020316600290048015612e895780601f10612e5e57610100808354040283529160200191612e89565b820191906000526020600020905b815481529060010190602001808311612e6c57829003601f168201915b50505050508152602001600282018054600181600116156101000203166002900480601f016020809104026020016040519081016040528092919081815260200182805460018160011615610100020316600290048015612f2b5780601f10612f0057610100808354040283529160200191612f2b565b820191906000526020600020905b815481529060010190602001808311612f0e57829003601f168201915b50505050508152602001600382018054600181600116156101000203166002900480601f016020809104026020016040519081016040528092919081815260200182805460018160011615610100020316600290048015612fcd5780601f10612fa257610100808354040283529160200191612fcd565b820191906000526020600020905b815481529060010190602001808311612fb057829003601f168201915b50505050508152602001600482018054600181600116156101000203166002900480601f01602080910402602001604051908101604052809291908181526020018280546001816001161561010002031660029004801561306f5780601f106130445761010080835404028352916020019161306f565b820191906000526020600020905b81548152906001019060200180831161305257829003601f168201915b50505050508152602001600582018054600181600116156101000203166002900480601f0160208091040260200160405190810160405280929190818152602001828054600181600116156101000203166002900480156131115780601f106130e657610100808354040283529160200191613111565b820191906000526020600020905b8154815290600101906020018083116130f457829003601f168201915b50505050508152602001600682018054600181600116156101000203166002900480601f0160208091040260200160405190810160405280929190818152602001828054600181600116156101000203166002900480156131b35780601f10613188576101008083540402835291602001916131b3565b820191906000526020600020905b81548152906001019060200180831161319657829003601f168201915b50505050508152505090508060200151915050919050565b6001602052806000526040600020600091509050806000015490806001018054600181600116156101000203166002900480601f01602080910402602001604051908101604052809291908181526020018280546001816001161561010002031660029004801561327d5780601f106132525761010080835404028352916020019161327d565b820191906000526020600020905b81548152906001019060200180831161326057829003601f168201915b505050505090806002018054600181600116156101000203166002900480601f01602080910402602001604051908101604052809291908181526020018280546001816001161561010002031660029004801561331b5780601f106132f05761010080835404028352916020019161331b565b820191906000526020600020905b8154815290600101906020018083116132fe57829003601f168201915b505050505090806003018054600181600116156101000203166002900480601f0160208091040260200160405190810160405280929190818152602001828054600181600116156101000203166002900480156133b95780601f1061338e576101008083540402835291602001916133b9565b820191906000526020600020905b81548152906001019060200180831161339c57829003601f168201915b505050505090806004018054600181600116156101000203166002900480601f0160208091040260200160405190810160405280929190818152602001828054600181600116156101000203166002900480156134575780601f1061342c57610100808354040283529160200191613457565b820191906000526020600020905b81548152906001019060200180831161343a57829003601f168201915b505050505090806005018054600181600116156101000203166002900480601f0160208091040260200160405190810160405280929190818152602001828054600181600116156101000203166002900480156134f55780601f106134ca576101008083540402835291602001916134f5565b820191906000526020600020905b8154815290600101906020018083116134d857829003601f168201915b505050505090806006018054600181600116156101000203166002900480601f0160208091040260200160405190810160405280929190818152602001828054600181600116156101000203166002900480156135935780601f1061356857610100808354040283529160200191613593565b820191906000526020600020905b81548152906001019060200180831161357657829003601f168201915b5050505050905087565b6000602052806000526040600020600091509050806000015490806001018054600181600116156101000203166002900480601f01602080910402602001604051908101604052809291908181526020018280546001816001161561010002031660029004801561364f5780601f106136245761010080835404028352916020019161364f565b820191906000526020600020905b81548152906001019060200180831161363257829003601f168201915b505050505090806002018054600181600116156101000203166002900480601f0160208091040260200160405190810160405280929190818152602001828054600181600116156101000203166002900480156136ed5780601f106136c2576101008083540402835291602001916136ed565b820191906000526020600020905b8154815290600101906020018083116136d057829003601f168201915b505050505090806003018054600181600116156101000203166002900480601f01602080910402602001604051908101604052809291908181526020018280546001816001161561010002031660029004801561378b5780601f106137605761010080835404028352916020019161378b565b820191906000526020600020905b81548152906001019060200180831161376e57829003601f168201915b505050505090806004018054600181600116156101000203166002900480601f0160208091040260200160405190810160405280929190818152602001828054600181600116156101000203166002900480156138295780601f106137fe57610100808354040283529160200191613829565b820191906000526020600020905b81548152906001019060200180831161380c57829003601f168201915b505050505090806005018054600181600116156101000203166002900480601f0160208091040260200160405190810160405280929190818152602001828054600181600116156101000203166002900480156138c75780601f1061389c576101008083540402835291602001916138c7565b820191906000526020600020905b8154815290600101906020018083116138aa57829003601f168201915b505050505090806006018054600181600116156101000203166002900480601f0160208091040260200160405190810160405280929190818152602001828054600181600116156101000203166002900480156139655780601f1061393a57610100808354040283529160200191613965565b820191906000526020600020905b81548152906001019060200180831161394857829003601f168201915b5050505050905087565b60606002600084815260200190815260200160002060010160008381526020019081526020016000206006018054600181600116156101000203166002900480601f016020809104026020016040519081016040528092919081815260200182805460018160011615610100020316600290048015613a2f5780601f10613a0457610100808354040283529160200191613a2f565b820191906000526020600020905b815481529060010190602001808311613a1257829003601f168201915b5050505050905092915050565b60606002600084815260200190815260200160002060010160008381526020019081526020016000206005018054600181600116156101000203166002900480601f016020809104026020016040519081016040528092919081815260200182805460018160011615610100020316600290048015613afc5780601f10613ad157610100808354040283529160200191613afc565b820191906000526020600020905b815481529060010190602001808311613adf57829003601f168201915b5050505050905092915050565b6060613b13614513565b6000808481526020019081526020016000206040518060e001604052908160008201548152602001600182018054600181600116156101000203166002900480601f016020809104026020016040519081016040528092919081815260200182805460018160011615610100020316600290048015613bd35780601f10613ba857610100808354040283529160200191613bd3565b820191906000526020600020905b815481529060010190602001808311613bb657829003601f168201915b50505050508152602001600282018054600181600116156101000203166002900480601f016020809104026020016040519081016040528092919081815260200182805460018160011615610100020316600290048015613c755780601f10613c4a57610100808354040283529160200191613c75565b820191906000526020600020905b815481529060010190602001808311613c5857829003601f168201915b50505050508152602001600382018054600181600116156101000203166002900480601f016020809104026020016040519081016040528092919081815260200182805460018160011615610100020316600290048015613d175780601f10613cec57610100808354040283529160200191613d17565b820191906000526020600020905b815481529060010190602001808311613cfa57829003601f168201915b50505050508152602001600482018054600181600116156101000203166002900480601f016020809104026020016040519081016040528092919081815260200182805460018160011615610100020316600290048015613db95780601f10613d8e57610100808354040283529160200191613db9565b820191906000526020600020905b815481529060010190602001808311613d9c57829003601f168201915b50505050508152602001600582018054600181600116156101000203166002900480601f016020809104026020016040519081016040528092919081815260200182805460018160011615610100020316600290048015613e5b5780601f10613e3057610100808354040283529160200191613e5b565b820191906000526020600020905b815481529060010190602001808311613e3e57829003601f168201915b50505050508152602001600682018054600181600116156101000203166002900480601f016020809104026020016040519081016040528092919081815260200182805460018160011615610100020316600290048015613efd5780601f10613ed257610100808354040283529160200191613efd565b820191906000526020600020905b815481529060010190602001808311613ee057829003601f168201915b50505050508152505090508060400151915050919050565b87600260008a81526020019081526020016000206000018190555087600260008a815260200190815260200160002060010160008981526020019081526020016000206000018190555085600260008a815260200190815260200160002060010160008981526020019081526020016000206001019080519060200190613f9d929190614550565b5084600260008a815260200190815260200160002060010160008981526020019081526020016000206002019080519060200190613fdc929190614550565b5083600260008a81526020019081526020016000206001016000898152602001908152602001600020600301908051906020019061401b929190614550565b5082600260008a81526020019081526020016000206001016000898152602001908152602001600020600401908051906020019061405a929190614550565b5081600260008a815260200190815260200160002060010160008981526020019081526020016000206005019080519060200190614099929190614550565b5080600260008a8152602001908152602001600020600101600089815260200190815260200160002060060190805190602001906140d8929190614550565b505050505050505050565b60038790806001815401808255809150509060018203906000526020600020016000909192909190915055506040518060e001604052808881526020018781526020018681526020018581526020018481526020018381526020018281525060008089815260200190815260200160002060008201518160000155602082015181600101908051906020019061417a9291906145d0565b5060408201518160020190805190602001906141979291906145d0565b5060608201518160030190805190602001906141b49291906145d0565b5060808201518160040190805190602001906141d19291906145d0565b5060a08201518160050190805190602001906141ee9291906145d0565b5060c082015181600601908051906020019061420b9291906145d0565b5090505050505050505050565b6004818154811061422557fe5b906000526020600020016000915090505481565b60606002600084815260200190815260200160002060010160008381526020019081526020016000206002018054600181600116156101000203166002900480601f0160208091040260200160405190810160405280929190818152602001828054600181600116156101000203166002900480156142f95780601f106142ce576101008083540402835291602001916142f9565b820191906000526020600020905b8154815290600101906020018083116142dc57829003601f168201915b5050505050905092915050565b600080600480549050141561434b57600460019080600181540180825580915050906001820390600052602060002001600090919290919091505550600190506143a3565b6000600160046001600480549050038154811061436457fe5b90600052602060002001540190506004819080600181540180825580915050906001820390600052602060002001600090919290919091505550809150505b90565b60008060038054905014156143eb5760036001908060018154018082558091505090600182039060005260206000200160009091929091909150555060019050614443565b6000600160036001600380549050038154811061440457fe5b90600052602060002001540190506003819080600181540180825580915050906001820390600052602060002001600090919290919091505550809150505b90565b60606002600084815260200190815260200160002060010160008381526020019081526020016000206004018054600181600116156101000203166002900480601f0160208091040260200160405190810160405280929190818152602001828054600181600116156101000203166002900480156145065780601f106144db57610100808354040283529160200191614506565b820191906000526020600020905b8154815290600101906020018083116144e957829003601f168201915b5050505050905092915050565b6040518060e00160405280600081526020016060815260200160608152602001606081526020016060815260200160608152602001606081525090565b828054600181600116156101000203166002900490600052602060002090601f016020900481019282601f1061459157805160ff19168380011785556145bf565b828001600101855582156145bf579182015b828111156145be5782518255916020019190600101906145a3565b5b5090506145cc9190614650565b5090565b828054600181600116156101000203166002900490600052602060002090601f016020900481019282601f1061461157805160ff191683800117855561463f565b8280016001018555821561463f579182015b8281111561463e578251825591602001919060010190614623565b5b50905061464c9190614650565b5090565b61467291905b8082111561466e576000816000905550600101614656565b5090565b9056fea265627a7a72315820d766f51c7c58fc2e9cb44bc75a860f38a73f75e0449f34385b8ea166753bf1c064736f6c63430005100032",
  "source": "// SPDX-License-Identifier: MIT\npragma solidity >=0.4.22 <0.9.0;\ncontract Project{\n    struct  Product{\n      uint  product_id; \n      string product_name;\n      string product_manufacture_date;\n      string product_expiry_date;\n      string latitude;\n      string longitude;\n      string name;\n    }\n    \n    struct Level{\n        uint id;\n        string name;\n        //string time_received;\n        string lat;\n        string lon;\n        string transport_address;\n        string feedback;\n        string complaint;\n    }\n\n    struct Multitransport{\n        uint id;\n        mapping(uint=>Level) multransport;\n    }\n    mapping(uint=>Product) public data_product;\n    mapping(uint=>Level) public trans;\n    mapping(uint=>Multitransport) public mul_tr;\n\n    uint[] public _idcheck;\n    uint[] public _idtrans;\n\n    \n    function setValue(uint _id,string memory _product_name,string memory _product_manu,string memory _product_exp,string memory _supp_lat,string memory _supp_lon,string memory _supp_name) public {       \n        _idcheck.push(_id);\n        data_product[_id] = Product(_id,_product_name, _product_manu,_product_exp,_supp_lat,_supp_lon,_supp_name);\n    }\n    \n    function updateMulTranVal(uint _id,uint _trid ,string memory name,string memory lat,string memory lon,string memory transport_address,string memory feedback,string memory complaint) public{\n            mul_tr[_id].id = _id;\n            mul_tr[_id].multransport[_trid].id = _id;\n            mul_tr[_id].multransport[_trid].name = name;\n            mul_tr[_id].multransport[_trid].lat = lat;\n            mul_tr[_id].multransport[_trid].lon = lon;\n            mul_tr[_id].multransport[_trid].transport_address = transport_address;\n            mul_tr[_id].multransport[_trid].feedback = feedback;\n            mul_tr[_id].multransport[_trid].complaint = complaint;\n    }\n    \n    /*function updateTransVal(uint _id, string memory name,string memory lat,string memory lon) public{\n        trans[_id] = Level(_id,name,lat,lon);\n        check_level[_id]=true;\n    }*/\n    \n\n    function getMultiname(uint _id,uint we) public view returns (string memory){\n            return( mul_tr[_id].multransport[we].name);\n    }\n    \n    function getMultilat(uint _id,uint we) public view returns (string memory){\n        return(mul_tr[_id].multransport[we].lat);\n    }\n    \n    function getMultilon(uint _id,uint we) public view returns (string memory){\n        return(mul_tr[_id].multransport[we].lon);\n    }\n    \n    function getMultitraddress(uint _id,uint we) public view returns (string memory){\n        return(mul_tr[_id].multransport[we].transport_address);\n    }\n    function getMultifeed(uint _id,uint we) public view returns (string memory){\n        return(mul_tr[_id].multransport[we].feedback);\n    }\n    function getMulticomp(uint _id,uint we) public view returns (string memory){\n        return(mul_tr[_id].multransport[we].complaint);\n    }\n    \n\n\n    function getId(uint _id) public view returns(uint){\n         Product memory  p = data_product[_id];\n         return(p.product_id);\n    }\n\n\n\n    function getPname(uint _id) public view returns(string memory){\n         Product memory  p = data_product[_id];\n         return(p.product_name);\n    }\n    function getPman(uint _id) public view returns(string memory){\n         Product memory  p = data_product[_id];\n         return(p.product_manufacture_date);\n    }\n    function getPexp(uint _id) public view returns(string memory){\n         Product memory  p = data_product[_id];\n         return(p.product_expiry_date);\n    }\n    \n    function getSlat(uint _id) public view returns(string memory){\n        Product memory  s = data_product[_id];\n         return(s.latitude);\n    }\n    function getSlon(uint _id) public view returns(string memory){\n        Product memory  s = data_product[_id];\n         return(s.longitude);\n    }\n    function getSname(uint _id) public view returns(string memory){\n         Product memory  s = data_product[_id];\n         return(s.name);\n    }\n    \n    function getArr() public  returns(uint){\n\n        if(_idcheck.length==0){\n            _idcheck.push(1);\n            return 1;\n        }\n        else{\n            uint a = _idcheck[_idcheck.length-1]+1;\n            _idcheck.push(a);\n            return a;\n        }\n    }\n\n    function getTran() public returns(uint){\n        if(_idtrans.length==0){\n            _idtrans.push(1);\n            return 1;\n        }else{\n            uint b = _idtrans[_idtrans.length-1]+1;\n            _idtrans.push(b);\n            return b;\n        }\n    }\n    \n}",
  "sourcePath": "/home/chaitanya/Documents/BlockchainHackProject/TraceIt-master/blockchain/contracts/Project.sol",
  "compiler": {
    "name": "solc",
    "version": "0.5.16+commit.9c3226ce.Emscripten.clang"
  },
  "schemaVersion": "3.4.7",
  "updatedAt": "2022-06-20T07:51:02.698Z",
  "devdoc": {
    "methods": {}
  },
  "userdoc": {
    "methods": {}
  }
}